{
  "contractName": "HelloWorld",
  "abi": [
    {
      "inputs": [],
      "stateMutability": "nonpayable",
      "type": "constructor"
    },
    {
      "anonymous": false,
      "inputs": [
        {
          "indexed": false,
          "internalType": "string",
          "name": "_holder",
          "type": "string"
        }
      ],
      "name": "HolderChanged",
      "type": "event"
    },
    {
      "inputs": [
        {
          "internalType": "string",
          "name": "_holder",
          "type": "string"
        }
      ],
      "name": "setHolder",
      "outputs": [],
      "stateMutability": "nonpayable",
      "type": "function"
    },
    {
      "inputs": [],
      "name": "getHolder",
      "outputs": [
        {
          "internalType": "string",
          "name": "",
          "type": "string"
        }
      ],
      "stateMutability": "view",
      "type": "function",
      "constant": true
    }
  ],
  "bytecode": "0x6080604052604051806020016040528060008152506000908051906020019061002992919061003c565b5034801561003657600080fd5b50610140565b8280546100489061010e565b90600052602060002090601f01602090048101928261006a57600085556100b1565b82601f1061008357805160ff19168380011785556100b1565b828001600101855582156100b1579182015b828111156100b0578251825591602001919060010190610095565b5b5090506100be91906100c2565b5090565b5b808211156100db5760008160009055506001016100c3565b5090565b7f4e487b7100000000000000000000000000000000000000000000000000000000600052602260045260246000fd5b6000600282049050600182168061012657607f821691505b6020821081141561013a576101396100df565b5b50919050565b6105978061014f6000396000f3fe608060405234801561001057600080fd5b50600436106100365760003560e01c80630c05b3c51461003b57806373009ea114610059575b600080fd5b610043610075565b6040516100509190610295565b60405180910390f35b610073600480360381019061006e9190610400565b610107565b005b60606000805461008490610478565b80601f01602080910402602001604051908101604052809291908181526020018280546100b090610478565b80156100fd5780601f106100d2576101008083540402835291602001916100fd565b820191906000526020600020905b8154815290600101906020018083116100e057829003601f168201915b5050505050905090565b806000908051906020019061011d929190610159565b507f37e47d103439f075ab5e50f163786f9c2dfaafae61ff97b1822091b6d9c2ac85600060405161014e919061053f565b60405180910390a150565b82805461016590610478565b90600052602060002090601f01602090048101928261018757600085556101ce565b82601f106101a057805160ff19168380011785556101ce565b828001600101855582156101ce579182015b828111156101cd5782518255916020019190600101906101b2565b5b5090506101db91906101df565b5090565b5b808211156101f85760008160009055506001016101e0565b5090565b600081519050919050565b600082825260208201905092915050565b60005b8381101561023657808201518184015260208101905061021b565b83811115610245576000848401525b50505050565b6000601f19601f8301169050919050565b6000610267826101fc565b6102718185610207565b9350610281818560208601610218565b61028a8161024b565b840191505092915050565b600060208201905081810360008301526102af818461025c565b905092915050565b6000604051905090565b600080fd5b600080fd5b600080fd5b600080fd5b7f4e487b7100000000000000000000000000000000000000000000000000000000600052604160045260246000fd5b61030d8261024b565b810181811067ffffffffffffffff8211171561032c5761032b6102d5565b5b80604052505050565b600061033f6102b7565b905061034b8282610304565b919050565b600067ffffffffffffffff82111561036b5761036a6102d5565b5b6103748261024b565b9050602081019050919050565b82818337600083830152505050565b60006103a361039e84610350565b610335565b9050828152602081018484840111156103bf576103be6102d0565b5b6103ca848285610381565b509392505050565b600082601f8301126103e7576103e66102cb565b5b81356103f7848260208601610390565b91505092915050565b600060208284031215610416576104156102c1565b5b600082013567ffffffffffffffff811115610434576104336102c6565b5b610440848285016103d2565b91505092915050565b7f4e487b7100000000000000000000000000000000000000000000000000000000600052602260045260246000fd5b6000600282049050600182168061049057607f821691505b602082108114156104a4576104a3610449565b5b50919050565b60008190508160005260206000209050919050565b600081546104cc81610478565b6104d68186610207565b945060018216600081146104f1576001811461050357610536565b60ff1983168652602086019350610536565b61050c856104aa565b60005b8381101561052e5781548189015260018201915060208101905061050f565b808801955050505b50505092915050565b6000602082019050818103600083015261055981846104bf565b90509291505056fea2646970667358221220eb0d1a6b8627b2396e9b463b7db24fa5659ac9acc4a73300cb1579a3af6c574d64736f6c634300080c0033",
  "immutableReferences": {},
  "source": "// SPDX-License-Identifier: MIT\n\n/**\nCreate a Hello World contract with a constructor, \nat least two functions, and a state variable, \nand Deploy to a testnet (Rinkeby).\n */\n\npragma solidity ^0.8.0;\n\ncontract HelloWorld {\n\n    string holder = '';\n\n    // Emitted when the stored value changes\n    event HolderChanged(string _holder);\n\n    constructor(){}\n\n    function setHolder(string memory _holder) public {\n        holder = _holder;\n        emit HolderChanged(holder);\n    }\n\n    function getHolder() view public returns(string memory){\n        return holder;\n    }\n}",
  "sourcePath": "/Users/mac/Desktop/blockchain-defi/blockgames-helloworld/contracts/HelloWorld.sol",
  "compiler": {
    "name": "solc",
    "version": "0.8.12+commit.f00d7308.Emscripten.clang"
  },
  "schemaVersion": "3.4.3",
  "updatedAt": "2022-03-10T16:18:16.214Z",
  "networkType": "ethereum",
  "devdoc": {
    "kind": "dev",
    "methods": {},
    "version": 1
  },
  "userdoc": {
    "kind": "user",
    "methods": {},
    "version": 1
  }
}